:100000000C942A000C9447000C9447000C94470071
:100010000C9447000C9447000C9447000C94470044
:100020000C9447000C9447000C9447000C94470034
:100030000C9447000C94FC0A0C94280B0C94540B61
:100040000C9447000C9447000C9447000C94470014
:100050000C94470011241FBECFE5D8E0DEBFCDBF12
:1000600011E0A0E6B0E0ECE2FEE102C005900D92E6
:10007000A039B107D9F711E0A0E9B1E001C01D92A4
:10008000AD39B107E1F70E948C0B0C94140F0C945E
:100090000000EF92FF920F931F937B018C0120E0F1
:1000A00030E040E05FE40E94490388238CF0C801FF
:1000B000B70120E030E040E05FE40E94C1010E940F
:1000C000A9039B01AC01205030404040504806C07D
:1000D000C801B7010E94A9039B01AC01B901CA0183
:1000E0001F910F91FF90EF900895A0E0B0E0EBE733
:1000F000F0E00C94160CDC012B01FA019C9192307B
:1001000008F439C1EB018881823008F433C194309E
:1001100069F4843009F02FC111969C91119789815F
:10012000981709F428C1A8E8B0E025C1843009F483
:1001300021C18230A9F4923009F01DC19A01AD01AC
:1001400088E0EA010990AE01E90109929E0181501F
:10015000C1F7E201898111969C918923818308C1AD
:10016000923009F407C112962D903C901397EB0141
:100170008A819B811496AD90BD90CD90DC901797AD
:10018000EC80FD800E811F819101281B390BB90184
:1001900037FF04C066277727621B730B6032710537
:1001A0000CF061C0121613066CF537014801062EDB
:1001B00004C096948794779467940A94D2F721E0C8
:1001C00030E040E050E004C0220F331F441F551FB1
:1001D0006A95D2F721503040404050402E213F21B7
:1001E00040235123211531054105510521F021E01E
:1001F00030E040E050E079018A01E628F72808293C
:1002000019293CC0232BD1F1260E371E350146019A
:10021000062E04C096948794779467940A94D2F734
:1002200021E030E040E050E004C0220F331F441FC3
:10023000551F6A95D2F721503040404050402A2146
:100240003B214C215D21211531054105510521F04E
:1002500021E030E040E050E059016A01A628B728CB
:10026000C828D9280BC0821593052CF01C01AA249C
:10027000BB24650103C0EE24FF24870111969C91E5
:10028000D20111968C91981709F445C0992339F041
:10029000A80197012A193B094C095D0906C0A6016E
:1002A00095012E193F09400B510B57FD08C01182D3
:1002B0003382228224833583468357831DC081E0A5
:1002C00081833382228288279927DC01821B930B4A
:1002D000A40BB50B84839583A683B7830DC0220F2F
:1002E000331F441F551F24833583468357838281E0
:1002F000938101979383828324813581468157813D
:10030000DA01C9010197A109B1098F5F9F4FAF4F72
:10031000BF4328F30BC0918333822282EA0CFB1C7B
:100320000C1D1D1DE482F5820683178383E0808304
:10033000248135814681578157FF1AC0C901AA27F8
:1003400097FDA095BA2F81709070A070B0705695EF
:10035000479537952795822B932BA42BB52B848318
:100360009583A683B7838281938101969383828349
:10037000DF0101C0D201CD01CDB7DEB7E2E10C94BF
:10038000320CA0E2B0E0E7ECF1E00C94220C6983BF
:100390007A838B839C832D833E834F835887E9E048
:1003A000EE2EF12CEC0EFD1ECE010196B7010E943F
:1003B0009A058E010F5E1F4FCE010596B8010E946F
:1003C0009A058A8991E089278A8BC701B801AE0115
:1003D000475E5F4F0E9475000E94C504A096E6E04C
:1003E0000C943E0CA0E2B0E0E8EFF1E00C94220C9B
:1003F00069837A838B839C832D833E834F835887C5
:10040000F9E0EF2EF12CEC0EFD1ECE010196B701A6
:100410000E949A058E010F5E1F4FCE010596B8010E
:100420000E949A05C701B801AE01475E5F4F0E9466
:1004300075000E94C504A096E6E00C943E0CA0E274
:10044000B0E0E5E2F2E00C94160C69837A838B83CA
:100450009C832D833E834F835887CE010196BE0136
:10046000675F7F4F0E949A05CE010596BE016F5EC1
:100470007F4F0E949A059985923088F08989823051
:10048000C8F0943019F4823051F404C0843029F457
:10049000923081F488E890E0C6C0923049F420E0C0
:1004A0009A858A89981321E02A87CE010996BBC0D4
:1004B000823049F420E09A858A89981321E02A8BBA
:1004C000CE014196B0C02D843E844F8458886D88FB
:1004D0007E888F88988CEE24FF248701AA24BB2471
:1004E000650140E050E060E070E0E0E0F0E0C10174
:1004F00081709070892BE9F0E60CF71C081D191D1E
:100500009A01AB012A0D3B1D4C1D5D1D80E090E062
:10051000A0E0B0E0E614F7040805190520F481E036
:1005200090E0A0E0B0E0BA01A901480F591F6A1F8E
:100530007B1FAA0CBB1CCC1CDD1C97FE08C081E0F5
:1005400090E0A0E0B0E0A82AB92ACA2ADB2A3196B6
:10055000E032F10549F0660C771C881C991C569412
:10056000479437942794C3CFFA85EA892B893C892D
:100570008B859C85280F391F2E5F3F4F17C0CA01FE
:1005800081709070892B61F016950795F794E79428
:1005900080E090E0A0E0B0E8E82AF92A0A2B1B2BC3
:1005A00076956795579547952F5F3F4F77FDE7CF36
:1005B0000CC0440F551F661F771F17FD4160EE0CDE
:1005C000FF1C001F111F21503040403090E05907A0
:1005D00090E0690790E4790760F32B8F3C8FDB0193
:1005E000CA018F779070A070B07080349105A1051A
:1005F000B10561F447FD0AC0E114F10401051105DC
:1006000029F0405C5F4F6F4F7F4F40781A8EFE1786
:1006100011F081E08A8F4D8F5E8F6F8F78A383E01A
:10062000898FCE0149960E94C504A096E2E10C9400
:10063000320CA8E1B0E0EFE1F3E00C94220C698306
:100640007A838B839C832D833E834F83588789E0F5
:10065000E82EF12CEC0EFD1ECE010196B7010E9492
:100660009A058E010F5E1F4FCE010596B8010E94BC
:100670009A058985823040F08989823028F0C70147
:10068000B8010E94120601C08FEF6896E6E00C9454
:100690003E0CA8E1B0E0EFE4F3E00C94220C698397
:1006A0007A838B839C832D833E834F83588789E095
:1006B000E82EF12CEC0EFD1ECE010196B7010E9432
:1006C0009A058E010F5E1F4FCE010596B8010E945C
:1006D0009A058985823040F08989823028F0C701E7
:1006E000B8010E94120601C08FEF6896E6E00C94F4
:1006F0003E0CA8E1B0E0EFE7F3E00C94220C698334
:100700007A838B839C832D833E834F83588789E034
:10071000E82EF12CEC0EFD1ECE010196B7010E94D1
:100720009A058E010F5E1F4FCE010596B8010E94FB
:100730009A058985823040F08989823028F0C70186
:10074000B8010E94120601C081E06896E6E00C94B0
:100750003E0CACE0B0E0EFEAF3E00C94260C6983C9
:100760007A838B839C83CE010196BE016B5F7F4FA2
:100770000E949A058D81823061F1823050F184307F
:1007800021F48E81882351F12EC02F81388537FDC9
:1007900020C06E812F3131051CF06623F9F023C093
:1007A0008EE190E0821B930B29853A854B855C8511
:1007B00004C056954795379527958A95D2F76623B5
:1007C000B1F050954095309521953F4F4F4F5F4F79
:1007D0000EC020E030E040E050E009C02FEF3FEFD6
:1007E0004FEF5FE704C020E030E040E050E8B9019F
:1007F000CA012C96E2E00C94420CA8E0B0E0E3E0E1
:10080000F4E00C941E0C7B018C01611571058105CF
:10081000910519F482E0898360C083E089838EE1C9
:10082000C82ED12CDC82CB82ED82FE820F8318870A
:10083000C801B7010E947604FC013197F7FF3BC065
:10084000222733272E1B3F0B57016801022E04C0BD
:10085000D694C794B794A7940A94D2F740E050E096
:1008600060E070E081E090E0A0E0B0E004C0880FBC
:10087000991FAA1FBB1F2A95D2F70197A109B10999
:100880008E219F21A023B1230097A105B10521F05E
:1008900041E050E060E070E04A295B296C297D2945
:1008A0004D835E836F8378878EE190E08E1B9F0B74
:1008B0009C838B8312C0309781F00E2E04C0EE0C07
:1008C000FF1C001F111F0A94D2F7ED82FE820F83D6
:1008D0001887CE1ADF0ADC82CB821A82CE010196FB
:1008E0000E94C5042896EAE00C943A0CEF92FF921D
:1008F0000F931F937B018C0180E0E81680E0F806DF
:1009000081E0080780E0180788F48FEFE816F1040B
:100910000105110531F028F088E090E0A0E0B0E09A
:1009200017C080E090E0A0E0B0E012C080E0E816E0
:1009300080E0F80680E0080781E0180728F088E1E9
:1009400090E0A0E0B0E004C080E190E0A0E0B0E082
:1009500020E230E040E050E0281B390B4A0B5B0BF3
:1009600004C016950795F794E7948A95D2F7F70196
:10097000E057FF4F8081281B310941095109C90106
:100980001F910F91FF90EF900895DF92EF92FF92E9
:100990000F931F93FC01E480F58006811781D180BD
:1009A0008081823048F480E090E0A0E1B0E0E82A65
:1009B000F92A0A2B1B2BA5C0843009F49FC0823072
:1009C00021F4EE24FF24870105C0E114F1040105A0
:1009D000110519F4E0E0F0E096C0628173819FEFA9
:1009E000623879070CF05BC022E83FEF261B370B1B
:1009F0002A3131052CF020E030E040E050E02AC000
:100A0000B801A701022E04C07695679557954795C2
:100A10000A94D2F781E090E0A0E0B0E004C0880F33
:100A2000991FAA1FBB1F2A95D2F70197A109B109E7
:100A30008E219F21A023B1230097A105B10521F0AC
:100A400081E090E0A0E0B0E09A01AB01282B392BC7
:100A50004A2B5B2BDA01C9018F779070A070B070C0
:100A600080349105A105B10539F427FF09C0205C48
:100A70003F4F4F4F5F4F04C0215C3F4F4F4F5F4F81
:100A8000E0E0F0E02030A0E03A07A0E04A07A0E470
:100A90005A0710F0E1E0F0E079018A0127C06038E0
:100AA000710564F5FB01E158FF4FD801C7018F774D
:100AB0009070A070B07080349105A105B10539F433
:100AC000E7FE0DC080E490E0A0E0B0E004C08FE35A
:100AD00090E0A0E0B0E0E80EF91E0A1F1B1F17FF10
:100AE00005C016950795F794E794319687E016951B
:100AF0000795F794E7948A95D1F705C0EE24FF2473
:100B00008701EFEFF0E06E2F679566276795902FCE
:100B10009F77D794DD24D7948E2F8695492F462B27
:100B2000582F5D29B701CA011F910F91FF90EF90D7
:100B3000DF900895FC01DB01408151812281622F09
:100B40006F7770E0221F2227221F9381892F880F41
:100B5000822B282F30E0991F9927991F11969C937B
:100B6000119721153105A9F541155105610571054B
:100B700011F482E037C082E89FEF13969C938E9326
:100B800012979A01AB0167E0220F331F441F551FD4
:100B90006A95D1F783E08C930DC0220F331F441F59
:100BA000551F12968D919C911397019713969C93C4
:100BB0008E931297203080E0380780E0480780E469
:100BC000580758F314962D933D934D935C931797C4
:100BD00008952F3F310579F44115510561057105DF
:100BE00019F484E08C93089564FF03C081E08C9332
:100BF00012C01C9210C02F57304013963C932E9376
:100C0000129783E08C9387E0440F551F661F771F70
:100C10008A95D1F7706414964D935D936D937C9390
:100C2000179708951F93DC01FB019C91923008F403
:100C300047C08081823008F443C0943051F411964B
:100C40001C91843099F58181682F70E0611B7109D6
:100C50003FC0843021F0923031F48230B9F181818B
:100C6000882389F12DC011961C9111978230F1F0E3
:100C700081811817D9F412962D913C911397828196
:100C800093818217930794F028173907BCF01496C4
:100C90008D919D910D90BC91A02D2481358146812F
:100CA0005781281739074A075B0718F4112341F0C9
:100CB0000AC082179307A407B50740F4112319F05F
:100CC00061E070E005C06FEF7FEF02C060E070E0B0
:100CD000CB011F9108951ABA87E087BB8FEF84BBC1
:100CE0008EEF81BB0895843409F1853438F4823461
:100CF000A9F08334B8F48134E9F40CC0823671F081
:100D0000833618F48136B1F405C0833659F0843641
:100D100089F40CC08BB380958BBB089588B3809504
:100D200088BB089585B3809585BB089582B380956F
:100D300082BB089500D080E690E0EDB7FEB79283C5
:100D400081830E944D0C0F900F9008958434D9F048
:100D5000853438F4823499F0833498F48134A9F4DA
:100D60000CC0823661F0833618F4813671F405C008
:100D7000833639F0843649F406C01BBA089518BA90
:100D8000089515BA089512BA089500D080E690E04B
:100D9000EDB7FEB7928381830E944D0C0F900F90A8
:100DA00008958434F1F0853438F48234A1F083342A
:100DB000A8F48134C9F40CC0823669F0833618F483
:100DC000813691F405C0833649F0843669F409C050
:100DD0008FEF8BBB08958FEF88BB08958FEF85BB96
:100DE00008958FEF82BB089500D080E690E0EDB7C4
:100DF000FEB7928381830E944D0C0F900F9008954F
:100E0000482F883040F489B390E002C095958795CB
:100E10004A95E2F722C08850883030F426B330E09B
:100E2000842F90E0089713C0842F8051883030F4CD
:100E300023B330E0842F90E0409709C0842F88517D
:100E4000893068F420B330E0842F90E0489702C0E6
:100E5000359527958A95E2F7822F8170089580E76E
:100E600090E00E94620C80E00895382F883058F49A
:100E70002BB381E090E002C0880F991F3A95E2F70A
:100E800028272BBB08958850883078F448B3232F47
:100E900030E02850304081E090E002C0880F991F78
:100EA0002A95E2F7482748BB0895832F8051883060
:100EB00078F445B3232F30E02051304081E090E0BA
:100EC00002C0880F991F2A95E2F7482745BB08956D
:100ED000832F8851883078F442B3232F30E0285193
:100EE000304081E090E002C0880F991F2A95E2F718
:100EF000482742BB089580E790E00E94620C089565
:100F00009F92AF92BF92CF92DF92EF92FF920F9398
:100F10001F93982E80E090E00E94FD035B016C011E
:100F200020E030E04AE755E40E941F027B018C017B
:100F300020E030E040E85FE30E94790388231CF45E
:100F400061E070E024C0C801B70120E03FEF4FE747
:100F500057E40E9419031816B4F4C601B50120E045
:100F600030E040E251E40E941F020E94490080E903
:100F700091E005C0FC013197F1F7615070406115B7
:100F80007105C1F707C0C801B7010E944900CB0134
:100F90000197F1F7892D0E9435071F910F91FF905E
:100FA000EF90DF90CF90BF90AF909F900895382F33
:100FB000613009F04AC0883058F42BB381E090E0EA
:100FC00002C0880F991F3A95E2F7282B2BBB089592
:100FD0008850883078F448B3232F30E028503040D0
:100FE00081E090E002C0880F991F2A95E2F7482B14
:100FF00048BB0895832F8051883078F445B3232F60
:1010000030E02051304081E090E002C0880F991F0D
:101010002A95E2F7482B45BB0895832F88518830E5
:1010200078F442B3232F30E02851304081E090E043
:1010300002C0880F991F2A95E2F7482B42BB0895FA
:1010400080E790E00E94620C0895662309F04DC08D
:10105000883060F42BB381E090E002C0880F991FC4
:101060003A95E2F7809582238BBB089588508830AB
:1010700080F448B3232F30E02850304081E090E0E6
:1010800002C0880F991F2A95E2F78095842388BBB8
:101090000895832F8051883080F445B3232F30E0AA
:1010A0002051304081E090E002C0880F991F2A95BE
:1010B000E2F78095842385BB0895832F885188307B
:1010C00080F442B3232F30E02851304081E090E09B
:1010D00002C0880F991F2A95E2F78095842382BB6E
:1010E000089580E790E00E94620C08951F93162FE8
:1010F000843409F4B5C0853450F4823409F44AC00C
:10110000833408F07AC0813409F0E0C010C0823620
:1011100009F440C0833620F4813609F0D7C007C0F7
:10112000833609F46AC0843609F0D0C099C0612FB3
:10113000617080E00E94D707612F6695617081E041
:101140000E94D707612F66956695617082E00E94C4
:10115000D707612F669566956695617083E00E945A
:10116000D707612F6295617084E00E94D707612FD5
:1011700062956695617085E00E94D7071295169575
:1011800016951370612F617086E00E94D70716953F
:1011900087E098C0612F617088E00E94D707612FB7
:1011A0006695617089E00E94D707612F6695669504
:1011B00061708AE00E94D707612F669566956695F3
:1011C00061708BE00E94D707612F629561708CE09F
:1011D0000E94D707612F6295669561708DE00E942D
:1011E000D7071295169516951370612F61708EE0D2
:1011F0000E94D70716958FE065C0612F617080E16E
:101200000E94D707612F6695617081E10E94D70720
:10121000612F66956695617082E10E94D707612F04
:10122000669566956695617083E10E94D707612F88
:101230006295617084E10E94D707612F629566957F
:10124000617085E10E94D707129516951695137067
:10125000612F617086E10E94D707169587E132C041
:10126000612F617088E10E94D707612F66956170D8
:1012700089E10E94D707612F6695669561708AE1C2
:101280000E94D707612F66956695669561708BE120
:101290000E94D707612F629561708CE10E94D70789
:1012A000612F6295669561708DE10E94D707129556
:1012B000169516951370612F61708EE10E94D70705
:1012C00016958FE1612F0E94D7070BC000D080E6F2
:1012D00090E0EDB7FEB7928381830E944D0C0F9092
:1012E0000F901F91089508958FB780688FBF08955C
:1012F0008FB78F778FBF08950F931F93182F8AE0B2
:1013000061E00E94D707612F661F6627661F87E08E
:101310000E94D707612F629566956695617086E099
:101320000E94D707612F62956695617085E00E94E3
:10133000D707612F6295617084E00E94D70789E02A
:1013400060E00E94D7078AE061E00E94D70788E04A
:1013500061E00E94D70705E0802F8A95F1F788E0C9
:1013600060E00E94D707612F66956695669561706B
:1013700087E00E94D707612F66956695617086E0C9
:101380000E94D707612F6695617085E00E94D7079C
:10139000117084E0612F0E94D70788E061E00E940D
:1013A000D7070A95F1F788E060E00E94D70788EE3A
:1013B00093E020E931E0F9013197F1F70197D9F78E
:1013C0001F910F910895EF92FF920F931F93CF9368
:1013D000DF937C01C8EED3E000E010E0C701BE015E
:1013E0000E94020C862F805D0E947C09C701BE010D
:1013F0000E94020C7C01CE016AE070E00E94020CA7
:10140000EB010F5F1F4F0430110541F7DF91CF91C2
:101410001F910F91FF90EF9008951F93CF93DF934B
:10142000EC0110E003C00E947C091F5FFE01E10F88
:10143000F11D80818823B9F7DF91CF911F91089525
:101440000F931F93182F682F661F6627661F87E06C
:101450000E94D707612F629566956695617086E058
:101460000E94D707612F62956695617085E00E94A2
:10147000D707612F6295617084E00E94D70789E0E9
:1014800060E00E94D7078AE060E00E94D70788E00A
:1014900061E00E94D70705E0802F8A95F1F788E088
:1014A00060E00E94D707612F66956695669561702A
:1014B00087E00E94D707612F66956695617086E088
:1014C0000E94D707612F6695617085E00E94D7075B
:1014D000117084E0612F0E94D70788E061E00E94CC
:1014E000D7070A95F1F788E060E00E94D7071F91BF
:1014F0000F910895DF93CF9300D0CDB7DEB790E87A
:10150000998390EC9A836150FE01E80FF11D808170
:10151000680F683E18F4862F0E94200A0F900F90E3
:10152000CF91DF91089582E00E94200A80E49FE13C
:101530000197F1F7089581E00E94200A80E49FE17D
:101540000197F1F708950F931F9380E69AEE0197A4
:10155000F1F780E30E94200A80E29EE40197F1F710
:1015600080E30E94200A88E592E00197F1F780E38A
:101570000E94200A82E30E94200A88E20E94200A38
:101580008EE00E94200A00E911E0C8010197F1F7FE
:101590000E949B0A80E49FE10197F1F786E00E9498
:1015A000200AC8010197F1F71F910F91089587E66E
:1015B00089B91BB81AB880B58F7780BD10BC59980F
:1015C000529857985698559A539A549A5D9886E827
:1015D00080BD08955D9BFECF8CB95E9A0895559AA3
:1015E0000895559808955F9BFECF8CB10895909310
:1015F00091018093900108951F920F920FB60F9260
:1016000011242F933F934F935F936F937F938F9307
:101610009F93AF93BF93EF93FF93E0919001F0916D
:1016200091010995FF91EF91BF91AF919F918F919A
:101630007F916F915F914F913F912F910F900FBECE
:101640000F901F90189590939501809394010895A1
:101650001F920F920FB60F9211242F933F934F9327
:101660005F936F937F938F939F93AF93BF93EF930A
:10167000FF93E0919401F09195010995FF91EF910D
:10168000BF91AF919F918F917F916F915F914F919A
:101690003F912F910F900FBE0F901F901895909330
:1016A00093018093920108951F920F920FB60F92AB
:1016B00011242F933F934F935F936F937F938F9357
:1016C0009F93AF93BF93EF93FF938FE10E943507F2
:1016D000E0919201F09193010995FF91EF91BF91F3
:1016E000AF919F918F917F916F915F914F913F91BA
:1016F0002F910F900FBE0F901F9018958FE161E012
:101700000E94D70780E29EE420E931E0F901319799
:10171000F1F70197D9F70895CF92DF92EF92FF92F8
:101720000F931F930E946B060E9473090E94740915
:101730000E94D70A80E061E00E94D70781E061E063
:101740000E94D70782E061E00E94D70782E00E94F2
:101750000007182F82E00E94000733EFC32E22EF0C
:10176000D22E91EFE92E80EFF82E01C0102F82E0EB
:101770000E940007082F82E00E940007682F8AE07D
:101780000E94D70782E00E940007882379F701179B
:1017900069F381E00E940007882339F40E94000762
:1017A000882319F4F092960125C081E00E94000779
:1017B000882339F40E940007813019F4E0929601E1
:1017C00019C081E00E940007813041F480E00E944E
:1017D0000007882319F4D09296010CC081E00E9482
:1017E0000007813039F480E00E940007813011F455
:1017F000C0929601809196010E94EA0AB7CF0E949A
:10180000F10A0895AA1BBB1B51E107C0AA1FBB1F09
:10181000A617B70710F0A61BB70B881F991F5A957C
:10182000A9F780959095BC01CD0108952F923F9224
:101830004F925F926F927F928F929F92AF92BF92E0
:10184000CF92DF92EF92FF920F931F93CF93DF938C
:10185000CDB7DEB7CA1BDB0B0FB6F894DEBF0FBEE9
:10186000CDBF09942A88398848885F846E847D8436
:101870008C849B84AA84B984C884DF80EE80FD8038
:101880000C811B81AA81B981CE0FD11D0FB6F894AE
:10189000DEBF0FBECDBFED010895A0E0B0E0E3E5EF
:1018A000FCE00C94260CFE013596619171918091BB
:1018B000990190919A01AF010E94970C2096E2E065
:1018C0000C94420C0F931F93CF93DF938C01E09104
:1018D0009901F0919A01838181FF21C0C0E0D0E09D
:1018E0000DC0E0919901F0919A0120853185BF01E9
:1018F000F9010995892B11F0CFEFDFEFF801819104
:101900008F01882371F7E0919901F0919A01208568
:1019100031858AE0BF01F9010995892B11F0CFEFDC
:10192000DFEFCE01DF91CF911F910F910895ABE0D2
:10193000B0E0EDE9FCE00C94160C3C012B015A01DF
:10194000FC0117821682838181FD03C06FEF7FEF58
:10195000C6C19AE0892E1E010894211C311CF30196
:101960002381F20123FD859123FF81912F0188239B
:1019700009F4B2C1853239F423FD859123FF8191A9
:101980002F01853229F490E0B3010E948A0EE7CF3F
:10199000982FFF24EE249924FFE1FF15D0F09B320D
:1019A00069F09C3228F4903259F0933291F40EC0D1
:1019B0009D3249F0903369F441E024C052E0F52AA9
:1019C00084E0F82A28C098E0F92A25C0E0E1FE2A40
:1019D00022C0F7FC29C0892F80538A3070F4F6FEAC
:1019E00005C0989C902C1124980E15C0E89CE02C02
:1019F0001124E80EF0E2FF2A0EC09E3229F4F6FC14
:101A00006BC140E4F42A07C09C3619F450E8F52A6B
:101A100002C0983649F4F20123FD959123FF91917C
:101A20002F01992309F0B8CF892F8554833018F0FE
:101A30008052833038F444E050E0A40EB51E5FE3DA
:101A400059830FC0933631F0933779F0933509F00D
:101A500056C020C0F5018081898342E050E0A40E89
:101A6000B51E610101E010E012C0F501C080D18017
:101A7000F6FC03C06FEF7FEF02C0692D70E042E01B
:101A800050E0A40EB51EC6010E947F0E8C015FE7D8
:101A9000F52214C0F501C080D180F6FC03C06FEFC1
:101AA0007FEF02C0692D70E042E050E0A40EB51E49
:101AB000C6010E94740E8C0150E8F52AF3FE07C09F
:101AC0001AC080E290E0B3010E948A0EEA948E2D43
:101AD00090E008171907A8F30EC0F601F7FC8591EE
:101AE000F7FE81916F0190E0B3010E948A0EE11030
:101AF000EA94015010400115110579F7EAC09436B7
:101B000011F0993669F5F7FE08C0F50120813181A1
:101B10004281538184E090E00AC0F5018081918187
:101B20009C01442737FD4095542F82E090E0A80E99
:101B3000B91E9FE6F92257FF09C050954095309590
:101B400021953F4F4F4F5F4FE0E8FE2ACA01B90190
:101B5000A1012AE030E00E94B60ED82ED21840C073
:101B6000953729F41F2D1F7E2AE030E01DC01F2D60
:101B7000197F9F3661F0903720F4983509F0ACC09A
:101B80000FC0903739F0983709F0A6C004C028E09C
:101B900030E00AC0106114FD146020E130E004C0A0
:101BA00014FD166020E132E017FF08C0F5016081E6
:101BB00071818281938144E050E008C0F501808109
:101BC0009181BC0180E090E042E050E0A40EB51E9F
:101BD000A1010E94B60ED82ED2188FE7F82EF1225E
:101BE000F6FE0BC05EEFF522D91438F4F4FE07C000
:101BF000F2FC05C08FEEF82202C01D2D01C0192D88
:101C0000F4FE0DC0FE01ED0DF11D8081803319F44D
:101C100099EEF92208C01F5FF2FE05C003C08F2DA8
:101C2000867809F01F5F0F2DF3FC14C0F0FE0FC083
:101C30001E1510F09D2C0BC09D2C9E0C911A1E2D74
:101C400006C080E290E0B3010E948A0E1F5F1E155D
:101C5000C0F304C01E1510F4E11A01C0EE2404FF05
:101C60000FC080E390E0B3010E948A0E02FF1DC006
:101C700001FD03C088E790E00EC088E590E00BC04E
:101C8000802F867891F001FF02C08BE201C080E2D4
:101C9000F7FC8DE290E0B3010E948A0E06C080E35B
:101CA00090E0B3010E948A0E9A94D914C0F3DA949A
:101CB000F101ED0DF11D808190E0B3010E948A0ECB
:101CC000DD20A9F706C080E290E0B3010E948A0EF1
:101CD000EA94EE20C1F743CEF30166817781CB0110
:101CE0002B96E2E10C94320CFC010590615070409F
:101CF0000110D8F7809590958E0F9F1F0895FC01D5
:101D00006150704001900110D8F7809590958E0F2A
:101D10009F1F08950F931F93CF93DF938C01EB01C7
:101D20008B8181FF1BC082FF0DC02E813F818C8182
:101D30009D812817390764F4E881F9810193F983BB
:101D4000E88306C0E885F985802F0995892B31F451
:101D50008E819F8101969F838E8302C00FEF1FEFBC
:101D6000C801DF91CF911F910F910895FA01AA2721
:101D7000283051F1203181F1E8946F936E7F6E5FCE
:101D80007F4F8F4F9F4FAF4FB1E03ED0B4E03CD07C
:101D9000670F781F891F9A1FA11D680F791F8A1F5F
:101DA000911DA11D6A0F711D811D911DA11D20D0C6
:101DB00009F468943F912AE0269F11243019305D80
:101DC0003193DEF6CF010895462F4770405D419371
:101DD000B3E00FD0C9F7F6CF462F4F70405D4A33BE
:101DE00018F0495D31FD4052419302D0A9F7EACF86
:101DF000B4E0A6959795879577956795BA95C9F7B5
:101E000000976105710508959B01AC010A2E0694A7
:101E10005795479537952795BA95C9F7620F731F60
:0C1E2000841F951FA01D0895F894FFCFAB
:101E2C00504F5254204E4F5420464F554E44210093
:101E3C004E6F6E2D6578697374696E672070696E6C
:101E4C0020746F2073657400000000000000000017
:101E5C000001020203030303040404040404040445
:101E6C000505050505050505050505050505050516
:101E7C0006060606060606060606060606060606F6
:101E8C0006060606060606060606060606060606E6
:101E9C0007070707070707070707070707070707C6
:101EAC0007070707070707070707070707070707B6
:101EBC0007070707070707070707070707070707A6
:101ECC000707070707070707070707070707070796
:101EDC000808080808080808080808080808080876
:101EEC000808080808080808080808080808080866
:101EFC000808080808080808080808080808080856
:101F0C000808080808080808080808080808080845
:101F1C000808080808080808080808080808080835
:101F2C000808080808080808080808080808080825
:101F3C000808080808080808080808080808080815
:101F4C000808080808080808080808080808080805
:00000001FF
