:100000000C942A000C9447000C9447000C94470071
:100010000C9447000C9447000C9447000C94470044
:100020000C9447000C9447000C9447000C94470034
:100030000C9447000C9447000C9447000C94470024
:100040000C9447000C9447000C9447000C94470014
:100050000C94470011241FBECFE5D8E0DEBFCDBF12
:1000600011E0A0E6B0E0E6E2F9E102C005900D92F1
:10007000AA3AB107D9F711E0AAEAB1E001C01D928E
:10008000A03BB107E1F70E944D090C94910C0C9430
:100090000000EF92FF920F931F937B018C0120E0F1
:1000A00030E040E05FE40E94490388238CF0C801FF
:1000B000B70120E030E040E05FE40E94C1010E940F
:1000C000A9039B01AC01205030404040504806C07D
:1000D000C801B7010E94A9039B01AC01B901CA0183
:1000E0001F910F91FF90EF900895A0E0B0E0EBE733
:1000F000F0E00C949309DC012B01FA019C91923001
:1001000008F439C1EB018881823008F433C194309E
:1001100069F4843009F02FC111969C91119789815F
:10012000981709F428C1A1EAB0E025C1843009F488
:1001300021C18230A9F4923009F01DC19A01AD01AC
:1001400088E0EA010990AE01E90109929E0181501F
:10015000C1F7E201898111969C918923818308C1AD
:10016000923009F407C112962D903C901397EB0141
:100170008A819B811496AD90BD90CD90DC901797AD
:10018000EC80FD800E811F819101281B390BB90184
:1001900037FF04C066277727621B730B6032710537
:1001A0000CF061C0121613066CF537014801062EDB
:1001B00004C096948794779467940A94D2F721E0C8
:1001C00030E040E050E004C0220F331F441F551FB1
:1001D0006A95D2F721503040404050402E213F21B7
:1001E00040235123211531054105510521F021E01E
:1001F00030E040E050E079018A01E628F72808293C
:1002000019293CC0232BD1F1260E371E350146019A
:10021000062E04C096948794779467940A94D2F734
:1002200021E030E040E050E004C0220F331F441FC3
:10023000551F6A95D2F721503040404050402A2146
:100240003B214C215D21211531054105510521F04E
:1002500021E030E040E050E059016A01A628B728CB
:10026000C828D9280BC0821593052CF01C01AA249C
:10027000BB24650103C0EE24FF24870111969C91E5
:10028000D20111968C91981709F445C0992339F041
:10029000A80197012A193B094C095D0906C0A6016E
:1002A00095012E193F09400B510B57FD08C01182D3
:1002B0003382228224833583468357831DC081E0A5
:1002C00081833382228288279927DC01821B930B4A
:1002D000A40BB50B84839583A683B7830DC0220F2F
:1002E000331F441F551F24833583468357838281E0
:1002F000938101979383828324813581468157813D
:10030000DA01C9010197A109B1098F5F9F4FAF4F72
:10031000BF4328F30BC0918333822282EA0CFB1C7B
:100320000C1D1D1DE482F5820683178383E0808304
:10033000248135814681578157FF1AC0C901AA27F8
:1003400097FDA095BA2F81709070A070B0705695EF
:10035000479537952795822B932BA42BB52B848318
:100360009583A683B7838281938101969383828349
:10037000DF0101C0D201CD01CDB7DEB7E2E10C94BF
:10038000AF09A0E2B0E0E7ECF1E00C949F096983CB
:100390007A838B839C832D833E834F835887E9E048
:1003A000EE2EF12CEC0EFD1ECE010196B7010E943F
:1003B0009A058E010F5E1F4FCE010596B8010E946F
:1003C0009A058A8991E089278A8BC701B801AE0115
:1003D000475E5F4F0E9475000E94C504A096E6E04C
:1003E0000C94BB09A0E2B0E0E8EFF1E00C949F09A7
:1003F00069837A838B839C832D833E834F835887C5
:10040000F9E0EF2EF12CEC0EFD1ECE010196B701A6
:100410000E949A058E010F5E1F4FCE010596B8010E
:100420000E949A05C701B801AE01475E5F4F0E9466
:1004300075000E94C504A096E6E00C94BB09A0E2FA
:10044000B0E0E5E2F2E00C94930969837A838B8350
:100450009C832D833E834F835887CE010196BE0136
:10046000675F7F4F0E949A05CE010596BE016F5EC1
:100470007F4F0E949A059985923088F08989823051
:10048000C8F0943019F4823051F404C0843029F457
:10049000923081F481EA90E0C6C0923049F420E0C5
:1004A0009A858A89981321E02A87CE010996BBC0D4
:1004B000823049F420E09A858A89981321E02A8BBA
:1004C000CE014196B0C02D843E844F8458886D88FB
:1004D0007E888F88988CEE24FF248701AA24BB2471
:1004E000650140E050E060E070E0E0E0F0E0C10174
:1004F00081709070892BE9F0E60CF71C081D191D1E
:100500009A01AB012A0D3B1D4C1D5D1D80E090E062
:10051000A0E0B0E0E614F7040805190520F481E036
:1005200090E0A0E0B0E0BA01A901480F591F6A1F8E
:100530007B1FAA0CBB1CCC1CDD1C97FE08C081E0F5
:1005400090E0A0E0B0E0A82AB92ACA2ADB2A3196B6
:10055000E032F10549F0660C771C881C991C569412
:10056000479437942794C3CFFA85EA892B893C892D
:100570008B859C85280F391F2E5F3F4F17C0CA01FE
:1005800081709070892B61F016950795F794E79428
:1005900080E090E0A0E0B0E8E82AF92A0A2B1B2BC3
:1005A00076956795579547952F5F3F4F77FDE7CF36
:1005B0000CC0440F551F661F771F17FD4160EE0CDE
:1005C000FF1C001F111F21503040403090E05907A0
:1005D00090E0690790E4790760F32B8F3C8FDB0193
:1005E000CA018F779070A070B07080349105A1051A
:1005F000B10561F447FD0AC0E114F10401051105DC
:1006000029F0405C5F4F6F4F7F4F40781A8EFE1786
:1006100011F081E08A8F4D8F5E8F6F8F78A383E01A
:10062000898FCE0149960E94C504A096E2E10C9400
:10063000AF09A8E1B0E0EFE1F3E00C949F09698312
:100640007A838B839C832D833E834F83588789E0F5
:10065000E82EF12CEC0EFD1ECE010196B7010E9492
:100660009A058E010F5E1F4FCE010596B8010E94BC
:100670009A058985823040F08989823028F0C70147
:10068000B8010E94120601C08FEF6896E6E00C9454
:10069000BB09A8E1B0E0EFE4F3E00C949F096983A3
:1006A0007A838B839C832D833E834F83588789E095
:1006B000E82EF12CEC0EFD1ECE010196B7010E9432
:1006C0009A058E010F5E1F4FCE010596B8010E945C
:1006D0009A058985823040F08989823028F0C701E7
:1006E000B8010E94120601C08FEF6896E6E00C94F4
:1006F000BB09A8E1B0E0EFE7F3E00C949F09698340
:100700007A838B839C832D833E834F83588789E034
:10071000E82EF12CEC0EFD1ECE010196B7010E94D1
:100720009A058E010F5E1F4FCE010596B8010E94FB
:100730009A058985823040F08989823028F0C70186
:10074000B8010E94120601C081E06896E6E00C94B0
:10075000BB09ACE0B0E0EFEAF3E00C94A3096983D5
:100760007A838B839C83CE010196BE016B5F7F4FA2
:100770000E949A058D81823061F1823050F184307F
:1007800021F48E81882351F12EC02F81388537FDC9
:1007900020C06E812F3131051CF06623F9F023C093
:1007A0008EE190E0821B930B29853A854B855C8511
:1007B00004C056954795379527958A95D2F76623B5
:1007C000B1F050954095309521953F4F4F4F5F4F79
:1007D0000EC020E030E040E050E009C02FEF3FEFD6
:1007E0004FEF5FE704C020E030E040E050E8B9019F
:1007F000CA012C96E2E00C94BF09A8E0B0E0E3E067
:10080000F4E00C949B097B018C0161157105810555
:10081000910519F482E0898360C083E089838EE1C9
:10082000C82ED12CDC82CB82ED82FE820F8318870A
:10083000C801B7010E947604FC013197F7FF3BC065
:10084000222733272E1B3F0B57016801022E04C0BD
:10085000D694C794B794A7940A94D2F740E050E096
:1008600060E070E081E090E0A0E0B0E004C0880FBC
:10087000991FAA1FBB1F2A95D2F70197A109B10999
:100880008E219F21A023B1230097A105B10521F05E
:1008900041E050E060E070E04A295B296C297D2945
:1008A0004D835E836F8378878EE190E08E1B9F0B74
:1008B0009C838B8312C0309781F00E2E04C0EE0C07
:1008C000FF1C001F111F0A94D2F7ED82FE820F83D6
:1008D0001887CE1ADF0ADC82CB821A82CE010196FB
:1008E0000E94C5042896EAE00C94B709EF92FF92A3
:1008F0000F931F937B018C0180E0E81680E0F806DF
:1009000081E0080780E0180788F48FEFE816F1040B
:100910000105110531F028F088E090E0A0E0B0E09A
:1009200017C080E090E0A0E0B0E012C080E0E816E0
:1009300080E0F80680E0080781E0180728F088E1E9
:1009400090E0A0E0B0E004C080E190E0A0E0B0E082
:1009500020E230E040E050E0281B390B4A0B5B0BF3
:1009600004C016950795F794E7948A95D2F7F70196
:10097000E755FF4F8081281B310941095109C90101
:100980001F910F91FF90EF900895DF92EF92FF92E9
:100990000F931F93FC01E480F58006811781D180BD
:1009A0008081823048F480E090E0A0E1B0E0E82A65
:1009B000F92A0A2B1B2BA5C0843009F49FC0823072
:1009C00021F4EE24FF24870105C0E114F1040105A0
:1009D000110519F4E0E0F0E096C0628173819FEFA9
:1009E000623879070CF05BC022E83FEF261B370B1B
:1009F0002A3131052CF020E030E040E050E02AC000
:100A0000B801A701022E04C07695679557954795C2
:100A10000A94D2F781E090E0A0E0B0E004C0880F33
:100A2000991FAA1FBB1F2A95D2F70197A109B109E7
:100A30008E219F21A023B1230097A105B10521F0AC
:100A400081E090E0A0E0B0E09A01AB01282B392BC7
:100A50004A2B5B2BDA01C9018F779070A070B070C0
:100A600080349105A105B10539F427FF09C0205C48
:100A70003F4F4F4F5F4F04C0215C3F4F4F4F5F4F81
:100A8000E0E0F0E02030A0E03A07A0E04A07A0E470
:100A90005A0710F0E1E0F0E079018A0127C06038E0
:100AA000710564F5FB01E158FF4FD801C7018F774D
:100AB0009070A070B07080349105A105B10539F433
:100AC000E7FE0DC080E490E0A0E0B0E004C08FE35A
:100AD00090E0A0E0B0E0E80EF91E0A1F1B1F17FF10
:100AE00005C016950795F794E794319687E016951B
:100AF0000795F794E7948A95D1F705C0EE24FF2473
:100B00008701EFEFF0E06E2F679566276795902FCE
:100B10009F77D794DD24D7948E2F8695492F462B27
:100B2000582F5D29B701CA011F910F91FF90EF90D7
:100B3000DF900895FC01DB01408151812281622F09
:100B40006F7770E0221F2227221F9381892F880F41
:100B5000822B282F30E0991F9927991F11969C937B
:100B6000119721153105A9F541155105610571054B
:100B700011F482E037C082E89FEF13969C938E9326
:100B800012979A01AB0167E0220F331F441F551FD4
:100B90006A95D1F783E08C930DC0220F331F441F59
:100BA000551F12968D919C911397019713969C93C4
:100BB0008E931297203080E0380780E0480780E469
:100BC000580758F314962D933D934D935C931797C4
:100BD00008952F3F310579F44115510561057105DF
:100BE00019F484E08C93089564FF03C081E08C9332
:100BF00012C01C9210C02F57304013963C932E9376
:100C0000129783E08C9387E0440F551F661F771F70
:100C10008A95D1F7706414964D935D936D937C9390
:100C2000179708951F93DC01FB019C91923008F403
:100C300047C08081823008F443C0943051F411964B
:100C40001C91843099F58181682F70E0611B7109D6
:100C50003FC0843021F0923031F48230B9F181818B
:100C6000882389F12DC011961C9111978230F1F0E3
:100C700081811817D9F412962D913C911397828196
:100C800093818217930794F028173907BCF01496C4
:100C90008D919D910D90BC91A02D2481358146812F
:100CA0005781281739074A075B0718F4112341F0C9
:100CB0000AC082179307A407B50740F4112319F05F
:100CC00061E070E005C06FEF7FEF02C060E070E0B0
:100CD000CB011F91089588EF8ABB8FEF87BB8FE30D
:100CE00084BB8AEF81BB0895843409F47EC08534C7
:100CF00048F48234D1F1833408F051C0813409F0D2
:100D0000A4C00FC0823689F1833620F4813609F001
:100D10009CC007C0833609F442C0843609F095C0F0
:100D200064C08DB79EB742970FB6F8949EBF0FBEB2
:100D30008DBFEDB7FEB7319680E690E0ADB7BEB798
:100D400012969C938E93119781E090E09383828317
:100D5000958384839783868391878087938782870F
:100D6000158614861786168663C08DB79EB7429780
:100D70000FB6F8949EBF0FBE8DBFEDB7FEB731968C
:100D800080E690E0ADB7BEB712969C938E93119714
:100D900081E090E0938382839583848319C08DB72B
:100DA0009EB742970FB6F8949EBF0FBE8DBFEDB7AA
:100DB000FEB7319680E690E0ADB7BEB712969C9331
:100DC0008E931197138212821582148281E090E033
:100DD0009783868391878087938782879587848787
:100DE00097878687918B808B25C08DB79EB742975A
:100DF0000FB6F8949EBF0FBE8DBFEDB7FEB731960C
:100E000080E690E0ADB7BEB712969C938E93119793
:100E100081E090E0938382839583848397838683A4
:100E20009187808793878287158614869787868720
:100E3000118A108A0E94CA09EDB7FEB772960FB6E2
:100E4000F894FEBF0FBEEDBF089500D089E790E093
:100E5000ADB7BEB712969C938E9311970E94CA09A4
:100E60000F900F900895843409F1853438F482345A
:100E7000A9F08334B8F48134E9F40CC0823671F0FF
:100E8000833618F48136B1F405C0833659F08436C0
:100E900089F40CC08BB380958BBB089588B3809583
:100EA00088BB089585B3809585BB089582B38095EE
:100EB00082BB089500D089E790E0EDB7FEB792833A
:100EC00081830E94CA090F900F9008958434D9F04D
:100ED000853438F4823499F0833498F48134A9F459
:100EE0000CC0823661F0833618F4813671F405C087
:100EF000833639F0843649F406C01BBA089518BA0F
:100F0000089515BA089512BA089500D089E790E0BF
:100F1000EDB7FEB7928381830E94CA090F900F90AC
:100F200008958434F1F0853438F48234A1F08334A8
:100F3000A8F48134C9F40CC0823669F0833618F401
:100F4000813691F405C0833649F0843669F409C0CE
:100F50008FEF8BBB08958FEF88BB08958FEF85BB14
:100F600008958FEF82BB089500D089E790E0EDB738
:100F7000FEB7928381830E94CA090F900F90089553
:100F8000482F883040F489B390E002C0959587954A
:100F90004A95E2F722C08850883030F426B330E01A
:100FA000842F90E0089713C0842F8051883030F44C
:100FB00023B330E0842F90E0409709C0842F8851FC
:100FC000893068F420B330E0842F90E0489702C065
:100FD000359527958A95E2F7822F8170089589E8E3
:100FE00090E00E94DF0980E00895382F883058F49F
:100FF0002BB381E090E002C0880F991F3A95E2F789
:1010000028272BBB08958850883078F448B3232FC5
:1010100030E02850304081E090E002C0880F991FF6
:101020002A95E2F7482748BB0895832F80518830DE
:1010300078F445B3232F30E02051304081E090E038
:1010400002C0880F991F2A95E2F7482745BB0895EB
:10105000832F8851883078F442B3232F30E0285111
:10106000304081E090E002C0880F991F2A95E2F796
:10107000482742BB089589E890E00E94DF0908955F
:101080009F92AF92BF92CF92DF92EF92FF920F9317
:101090001F93982E80E090E00E94FD035B016C019D
:1010A00020E030E04AE755E40E941F027B018C01FA
:1010B00020E030E040E85FE30E94790388231CF4DD
:1010C00061E070E024C0C801B70120E03FEF4FE7C6
:1010D00057E40E9419031816B4F4C601B50120E0C4
:1010E00030E040E251E40E941F020E94490080E982
:1010F00091E005C0FC013197F1F761507040611536
:101100007105C1F707C0C801B7010E944900CB01B2
:101110000197F1F7892D0E94F5071F910F91FF901C
:10112000EF90DF90CF90BF90AF909F900895382FB1
:10113000883060F42BB381E090E002C0880F991FE3
:101140003A95E2F7809582238BBB089588508830CA
:1011500080F448B3232F30E02850304081E090E005
:1011600002C0880F991F2A95E2F78095842388BBD7
:101170000895832F8051883080F445B3232F30E0C9
:101180002051304081E090E002C0880F991F2A95DD
:10119000E2F78095842385BB0895832F885188309A
:1011A00080F442B3232F30E02851304081E090E0BA
:1011B00002C0880F991F2A95E2F78095842382BB8D
:1011C000089589E890E00E94DF090895382F88305B
:1011D00058F42BB381E090E002C0880F991F3A9534
:1011E000E2F7282B2BBB08958850883078F448B359
:1011F000232F30E02850304081E090E002C0880F7B
:10120000991F2A95E2F7482B48BB0895832F8051F8
:10121000883078F445B3232F30E02051304081E00E
:1012200090E002C0880F991F2A95E2F7482B45BB32
:101230000895832F8851883078F442B3232F30E00B
:101240002851304081E090E002C0880F991F2A9514
:10125000E2F7482B42BB089589E890E00E94DF093D
:101260000895613019F40E94E6080895662311F488
:101270000E946607089587E689B91BB81AB8539A81
:10128000549A86EC80BD08958CB95E9BFECF5E9A21
:1012900008955F9BFECF8CB108951F930E946B064B
:1012A0000E943B0980E00E94E60881E00E94E60877
:1012B00081E090E00E94C007892B41F480E090E03B
:1012C0000E94C007892B11F413E029C081E090E04F
:1012D0000E94C007892B41F480E090E00E94C00783
:1012E000019711F412E01BC081E090E00E94C0075A
:1012F000019741F480E090E00E94C007892B11F42F
:1013000011E00DC081E090E00E94C007019739F420
:1013100080E090E00E94C007019709F410E0812F5F
:101320000E944409C5CF2F923F924F925F926F92D5
:101330007F928F929F92AF92BF92CF92DF92EF9265
:10134000FF920F931F93CF93DF93CDB7DEB7CA1BE6
:10135000DB0B0FB6F894DEBF0FBECDBF09942A8811
:10136000398848885F846E847D848C849B84AA84B9
:10137000B984C884DF80EE80FD800C811B81AA8146
:10138000B981CE0FD11D0FB6F894DEBF0FBECDBF11
:10139000ED010895A0E0B0E0E0EDF9E00C94A309C0
:1013A000FE013596619171918091AC019091AD01F2
:1013B000AF010E94140A2096E2E00C94BF090F933B
:1013C0001F93CF93DF938C01E091AC01F091AD01BD
:1013D000838181FF21C0C0E0D0E00DC0E091AC016D
:1013E000F091AD0120853185BF01F9010995892B67
:1013F00011F0CFEFDFEFF80181918F01882371F7B2
:10140000E091AC01F091AD01208531858AE0BF010A
:10141000F9010995892B11F0CFEFDFEFCE01DF91B4
:10142000CF911F910F910895ABE0B0E0EAE1FAE0AF
:101430000C9493093C012B015A01FC01178216827E
:10144000838181FD03C06FEF7FEFC6C19AE0892ED3
:101450001E010894211C311CF3012381F20123FD9C
:10146000859123FF81912F01882309F4B2C1853230
:1014700039F423FD859123FF81912F01853229F4D1
:1014800090E0B3010E94070CE7CF982FFF24EE24D1
:101490009924FFE1FF15D0F09B3269F09C3228F4CB
:1014A000903259F0933291F40EC09D3249F090334E
:1014B00069F441E024C052E0F52A84E0F82A28C00B
:1014C00098E0F92A25C0E0E1FE2A22C0F7FC29C0F5
:1014D000892F80538A3070F4F6FE05C0989C902CBA
:1014E0001124980E15C0E89CE02C1124E80EF0E2BF
:1014F000FF2A0EC09E3229F4F6FC6BC140E4F42AA8
:1015000007C09C3619F450E8F52A02C0983649F411
:10151000F20123FD959123FF91912F01992309F069
:10152000B8CF892F8554833018F08052833038F437
:1015300044E050E0A40EB51E5FE359830FC093361C
:1015400031F0933779F0933509F056C020C0F5019A
:101550008081898342E050E0A40EB51E610101E064
:1015600010E012C0F501C080D180F6FC03C06FEF1F
:101570007FEF02C0692D70E042E050E0A40EB51E7E
:10158000C6010E94FC0B8C015FE7F52214C0F50137
:10159000C080D180F6FC03C06FEF7FEF02C0692DE1
:1015A00070E042E050E0A40EB51EC6010E94F10BAF
:1015B0008C0150E8F52AF3FE07C01AC080E290E0E3
:1015C000B3010E94070CEA948E2D90E008171907CA
:1015D000A8F30EC0F601F7FC8591F7FE81916F012B
:1015E00090E0B3010E94070CE110EA940150104012
:1015F0000115110579F7EAC0943611F0993669F5AD
:10160000F7FE08C0F501208131814281538184E0D9
:1016100090E00AC0F501808191819C01442737FD4B
:101620004095542F82E090E0A80EB91E9FE6F92263
:1016300057FF09C050954095309521953F4F4F4F2A
:101640005F4FE0E8FE2ACA01B901A1012AE030E0BB
:101650000E94330CD82ED21840C0953729F41F2D84
:101660001F7E2AE030E01DC01F2D197F9F3661F0DC
:10167000903720F4983509F0ACC00FC0903739F09E
:10168000983709F0A6C004C028E030E00AC0106115
:1016900014FD146020E130E004C014FD166020E168
:1016A00032E017FF08C0F50160817181828193816A
:1016B00044E050E008C0F50180819181BC0180E0E8
:1016C00090E042E050E0A40EB51EA1010E94330C50
:1016D000D82ED2188FE7F82EF122F6FE0BC05EEF5F
:1016E000F522D91438F4F4FE07C0F2FC05C08FEEE1
:1016F000F82202C01D2D01C0192DF4FE0DC0FE01FF
:10170000ED0DF11D8081803319F499EEF92208C0A6
:101710001F5FF2FE05C003C08F2D867809F01F5FA2
:101720000F2DF3FC14C0F0FE0FC01E1510F09D2C01
:101730000BC09D2C9E0C911A1E2D06C080E290E0DD
:10174000B3010E94070C1F5F1E15C0F304C01E15D5
:1017500010F4E11A01C0EE2404FF0FC080E390E012
:10176000B3010E94070C02FF1DC001FD03C088E702
:1017700090E00EC088E590E00BC0802F867891F055
:1017800001FF02C08BE201C080E2F7FC8DE290E035
:10179000B3010E94070C06C080E390E0B3010E94F1
:1017A000070C9A94D914C0F3DA94F101ED0DF11DF0
:1017B000808190E0B3010E94070CDD20A9F706C0EC
:1017C00080E290E0B3010E94070CEA94EE20C1F79A
:1017D00043CEF30166817781CB012B96E2E10C9435
:1017E000AF09FC010590615070400110D8F7809559
:1017F00090958E0F9F1F0895FC01615070400190DD
:101800000110D8F7809590958E0F9F1F08950F9324
:101810001F93CF93DF938C01EB018B8181FF1BC062
:1018200082FF0DC02E813F818C819D812817390751
:1018300064F4E881F9810193F983E88306C0E885BF
:10184000F985802F0995892B31F48E819F8101962E
:101850009F838E8302C00FEF1FEFC801DF91CF91EE
:101860001F910F910895FA01AA27283051F12031D4
:1018700081F1E8946F936E7F6E5F7F4F8F4F9F4F24
:10188000AF4FB1E03ED0B4E03CD0670F781F891F66
:101890009A1FA11D680F791F8A1F911DA11D6A0F34
:1018A000711D811D911DA11D20D009F468943F91E7
:1018B0002AE0269F11243019305D3193DEF6CF01E6
:1018C0000895462F4770405D4193B3E00FD0C9F7AC
:1018D000F6CF462F4F70405D4A3318F0495D31FD19
:1018E0004052419302D0A9F7EACFB4E0A69597956C
:1018F000879577956795BA95C9F700976105710542
:1019000008959B01AC010A2E06945795479537958B
:101910002795BA95C9F7620F731F841F951FA01DE5
:061920000895F894FFCFCA
:1019260025692C25692C25692C25692C25692C25EA
:10193600692C25692C25690A00504F5254204E4FB8
:101946005420464F554E4421004E6F6E2D657869E2
:101956007374696E672070696E20746F2073657486
:101966000000000000000000000001020203030363
:10197600030404040404040404050505050505051B
:1019860005050505050505050506060606060606FA
:1019960006060606060606060606060606060606E1
:1019A60006060606060606060607070707070707CA
:1019B60007070707070707070707070707070707B1
:1019C60007070707070707070707070707070707A1
:1019D6000707070707070707070707070707070791
:1019E600070707070707070707080808080808087A
:1019F6000808080808080808080808080808080861
:101A06000808080808080808080808080808080850
:101A16000808080808080808080808080808080840
:101A26000808080808080808080808080808080830
:101A36000808080808080808080808080808080820
:101A46000808080808080808080808080808080810
:101A56000808080808080808080808080808080800
:0A1A6600080808080808080808002E
:00000001FF
